:020000040800F2
:1000000000A00020C50B0008090C0008090C00081E
:10001000090C0008090C0008090C00080000000089
:10002000000000000000000000000000090C0008B3
:10003000090C000800000000090C00084902000833
:10004000090C0008090C0008090C0008090C00083C
:10005000090C0008090C0008090C0008090C00082C
:10006000090C0008090C0008090C0008090C00081C
:10007000090C0008090C0008090C0008090C00080C
:10008000090C0008090C0008090C0008090C0008FC
:10009000090C0008090C0008090C0008090C0008EC
:1000A000090C0008090C0008090C0008090C0008DC
:1000B000090C0008090C0008090C0008090C0008CC
:1000C000090C0008090C0008090C0008090C0008BC
:1000D000090C0008090C0008090C0008090C0008AC
:1000E000090C0008090C0008090C0008090C00089C
:1000F000090C0008090C0008090C0008090C00088C
:10010000000000000000000000000000090C0008D2
:10011000090C0008090C0008090C0008090C00086B
:10012000090C0008090C0008090C0008090C00085B
:10013000090C0008090C0008000000000000000085
:10014000090C0008090C0008090C00080000000058
:10015000000000000000000000000000000000009F
:100160000000000000000000090C0008090C000855
:10017000090C000800000000000000000000000062
:1001800000000000090C000880B483B000AF0346F3
:100190003960FB7197F90730002B0BDA0D49FB79B9
:1001A00003F00F03043B3A68D2B21201D2B20B44FF
:1001B0001A7609E0084997F907303A68D2B2120175
:1001C000D2B20B4483F8002300BF0C37BD4680BC7D
:1001D000704700BF00ED00E000E100E080B582B0B4
:1001E00000AF78607B68B3F1807F01D3012311E019
:1001F0000A4A7B6823F07F43013B53600F214FF095
:10020000FF30FFF7C1FF054B00229A60034B072226
:100210001A60002318460837BD4680BD10E000E094
:1002200080B500AF064800F03BF8054B5B68054A17
:10023000A2FB03239B091846FFF7D0FF00BF80BD38
:1002400030000020D34D621080B500AF00F016F8EA
:1002500000BF80BD80B483B000AF78607B68064A81
:10026000136000BF044B1B68002BFBD100BF0C3791
:10027000BD4680BC704700BF2C00002080B400AF9A
:10028000064B1B68002B04D0044B1B68013B034A40
:10029000136000BFBD4680BC704700BF2C0000202B
:1002A00080B48BB000AF786000233B620023FB6119
:1002B0000023BB6100237B6100233B6100237B6241
:1002C0000023FB600023BB60924B5B6803F00C03D0
:1002D0003B623B6A042B07D0082B09D0002B30D19E
:1002E0007B688D4A1A6030E07B688B4A1A602CE08C
:1002F000884B5B6803F47013FB61864B5B6803F407
:100300008033BB61FB699B0C0233FB61BB69002B33
:1003100005D1FB69814A02FB03F37B620DE07D4B53
:10032000DB6A03F00F0301337B617B4A7B69B2FB1D
:10033000F3F3FA6902FB03F37B627B687A6A1A6063
:1003400003E07B68744A1A6000BF724B5B6803F07D
:10035000F0033B623B6A1B093B62714A3B6A1344F0
:100360001B78DBB2BB607B681A68BB68DA407B68CD
:100370005A60684B5B6803F4E0633B623B6A1B0AAC
:100380003B62674A3B6A13441B78DBB23B617B6884
:100390005A683B69DA407B689A605E4B5B6803F49D
:1003A00060533B623B6ADB0A3B625D4A3B6A134433
:1003B0001B78DBB2FB607B685A68FB68DA407B68BD
:1003C000DA60544BDB6A03F4F8733B623B6A1B0947
:1003D0003B62544A3B6A32F813309BB23B613B6943
:1003E00003F01003002B06D07A6A3B69B2FBF3F2EC
:1003F0007B681A6103E07B681A687B681A61454B69
:10040000DB6A03F478533B623B6A5B0A3B62454A12
:100410003B6A32F813309BB23B613B6903F0100337
:10042000002B06D07A6A3B69B2FBF3F27B685A6113
:1004300003E07B681A687B685A61364B1B6B03F0DC
:100440001003002B03D17B68334A9A6103E07B6879
:100450001A687B689A612F4B1B6B03F02003002BFB
:1004600003D17B682C4ADA6103E07B681A687B68F9
:10047000DA61284B1B6B03F48073002B0DD07B6873
:100480001A687B6A9A4208D1FA68BB689A4204D11A
:100490007B6A5A007B681A6203E07B68DA687B68D3
:1004A0001A621C4B1B6B03F40073002B0DD07B688E
:1004B0001A687B6A9A4208D1FA68BB689A4204D1EA
:1004C0007B6A5A007B685A6203E07B68DA687B6863
:1004D0005A62104B1B6B03F00303002B04D17B68A3
:1004E000DA687B689A6228E00A4B1B6B03F003030F
:1004F000012B04D17B681A687B689A621DE0054B6A
:100500001B6B03F00303022B0ED17B684FF40042F8
:100510009A6212E00010024000127A0000093D00C9
:100520000000002010000020604B1B6B03F0030351
:10053000032B02D17B685E4A9A625C4B1B6B03F40F
:100540004033002B04D17B689A687B68DA6221E033
:10055000564B1B6B03F44033B3F5803F04D17B68EB
:100560001A687B68DA6215E0504B1B6B03F440336A
:10057000B3F5003F04D17B684FF40042DA6209E032
:100580004A4B1B6B03F44033B3F5403F02D17B6809
:10059000474ADA62454B1B6B03F44023002B04D11E
:1005A0007B689A687B681A6321E0404B1B6B03F4FD
:1005B0004023B3F5802F04D17B681A687B681A63E7
:1005C00015E03A4B1B6B03F44023B3F5002F04D125
:1005D0007B684FF400421A6309E0344B1B6B03F451
:1005E0004023B3F5402F02D17B68314A1A632F4B69
:1005F0001B6B03F44013002B04D17B689A687B6863
:100600005A6321E0294B1B6B03F44013B3F5801FA1
:1006100004D17B681A687B685A6315E0234B1B6B17
:1006200003F44013B3F5001F04D17B684FF400427C
:100630005A6309E01D4B1B6B03F44013B3F5401FD5
:1006400002D17B681A4A5A63184B1B6B03F44003B0
:10065000002B04D17B689A687B689A6321E0134B76
:100660001B6B03F44003B3F5800F04D17B681A6859
:100670007B689A6315E00D4B1B6B03F44003B3F5E5
:10068000000F04D17B684FF400429A6309E0074BE6
:100690001B6B03F44003B3F5400F02D17B68044A9F
:1006A0009A6300BF2C37BD4680BC704700100240E3
:1006B00000127A0080B483B000AF78600B46FB7004
:1006C000FB78002B06D00949084B5A697B68134315
:1006D0004B6106E00549054B5A697B68DB431340D3
:1006E0004B6100BF0C37BD4680BC70470010024014
:1006F00080B483B000AF78600B46FB70FB78002BB2
:1007000006D00949084BDA697B681343CB6106E0E0
:100710000549054BDA697B68DB431340CB6100BFB9
:100720000C37BD4680BC70470010024080B487B0D3
:1007300000AF7860396000237B6100233B610023B8
:10074000FB6000237B617EE001227B6902FA03F3F8
:100750003B613B681A683B691340FB60FA683B6980
:100760009A426DD13B681B79012B03D03B681B7902
:10077000022B36D17B689A687B695B00032101FA02
:1007800003F3DB431A407B689A607B689A683B6896
:100790005B7919467B695B0001FA03F31A437B68B6
:1007A0009A607B689B889AB27B699BB2012101FAAF
:1007B00003F39BB2DB439BB213409AB27B689A80EF
:1007C0007B689B889BB21AB23B689B7919467B6910
:1007D0009BB201FA03F31BB213431BB29AB27B68BC
:1007E0009A807B681A687B695B00032101FA03F336
:1007F000DB431A407B681A607B681A683B681B7988
:1008000019467B695B0001FA03F31A437B681A609F
:100810007B68DA687B699BB25B00032101FA03F312
:10082000DB431A407B68DA607B68DA683B68DB7917
:1008300019467B695B0001FA03F31A437B68DA60AF
:100840007B6901337B617B690F2B7FF67DAF00BF36
:100850001C37BD4680BC704780B483B000AF786061
:100860000B467B807A887B689A6100BF0C37BD4657
:1008700080BC704780B483B000AF78600B467B804B
:100880007B687A881A8500BF0C37BD4680BC7047EC
:1008900080B485B000AF78600B467B8013467B70D8
:1008A0000023FB600023BB607A787B8803F007039A
:1008B0009B0002FA03F3FB607B88DB089BB21846BF
:1008C0007B88DB089BB21A467B68083253F82220EB
:1008D0007B8803F007039B000F2101FA03F3DB433E
:1008E00002EA03017B6800F1080243F822107B88CA
:1008F000DB089BB21A467B68083253F82220FB685B
:100900001343BB607B88DB089BB21A467B680832C6
:10091000B96843F8221000BF1437BD4680BC704749
:1009200080B588B000AF01214FF40030FFF7C2FE60
:1009300001214FF40030FFF7DBFE022202214FF0CD
:100940009040FFF7A5FF0023BB770123FB7702232D
:100950003B774FF48063BB6103237B7707F1180378
:1009600019464FF09040FFF7E1FE022203214FF0BD
:100970009040FFF78DFF02233B774FF40063BB618C
:1009800007F1180319464FF09040FFF7CFFE4FF4E0
:10099000E1333B6000237B600023BB600023FB60EE
:1009A00000237B610C233B613B461946034800F062
:1009B0002DF900BF2037BD4680BD00BF0048004074
:1009C00080B582B000AF00F04BF801214FF4001069
:1009D000FFF770FEFFF724FC4FF4F0433B60012368
:1009E0003B713B4619461C48FFF7A0FE4FF490416F
:1009F0001948FFF731FF4FF440511748FFF73AFF0E
:100A0000FFF78EFF0121154800F0BCF94FF4FA7092
:100A1000FFF720FC4FF440510F48FFF72BFF4FF436
:100A2000FA70FFF717FC4FF490410B48FFF714FFE3
:100A30004FF4FA70FFF70EFC4FF490410648FFF7B1
:100A400019FF4FF4FA70FFF705FC4FF440510248CC
:100A5000FFF702FFDAE700BF00100048004800403F
:100A600080B500AF1B4A1B4B1B6843F001031360AA
:100A70001849184B5A68184B13404B60154A154BD0
:100A80001B6823F0847323F480331360114A114BE5
:100A90001B6823F4802313600E4A0E4B5B6823F41B
:100AA000FE0353600B4A0B4BDB6A23F00F03D36248
:100AB0000849084B1A6B094B13400B63054B002286
:100AC0009A6000F00FF8064B4FF000629A6000BF8A
:100AD00080BD00BF001002400CC07FF8CCFC00FFBE
:100AE00000ED00E080B483B000AF00237B60002302
:100AF0003B60324A314B1B6843F4803313602F4B09
:100B00001B6803F400333B607B6801337B603B6808
:100B1000002B03D17B68B3F5A06FF0D1274B1B6886
:100B200003F40033002B02D001233B6001E00023DB
:100B30003B603B68012B3CD1214B12221A601F4ABB
:100B40001E4B5B6853601D4A1C4B5B6853601B4A1D
:100B50001A4B5B6843F480635360184A174B5B6819
:100B600023F47C135360154A144B5B6843F4E81379
:100B70005360124A114B1B6843F08073136000BF2F
:100B80000E4B1B6803F00073002BF9D00B4A0B4B84
:100B90005B6823F003035360084A084B5B6843F02B
:100BA0000203536000BF054B5B6803F00C03082B86
:100BB000F9D100BF0C37BD4680BC70470010024021
:100BC00000200240002103E00A4B5B5843500431EF
:100BD00009480A4B42189A42F6D3094A02E0002318
:100BE00042F8043B074B9A42F9D3FFF739FFFFF76E
:100BF000E7FE7047BC0D0008000000202C0000201C
:100C00002C0000206C000020FEE7000080B594B0AE
:100C100000AF786039600023FB640023BB640023CD
:100C20007B647B681B6823F001027B681A607B6829
:100C30005B687B647B6C23F440537B643B689B68FC
:100C40007A6C13437B647B687A6C5A607B681B68A0
:100C50007B647B6C23F4B05323F00C037B643B6810
:100C60005A683B68DB681A433B681B6913437A6C1C
:100C700013437B647B687A6C1A607B689B687B6437
:100C80007B6C23F440737B643B685B697A6C134331
:100C90007B647B687A6C9A6007F108031846FFF75B
:100CA000FFFA7B68334A934202D13B6BBB6416E088
:100CB0007B68314A934202D17B6BBB640FE07B6857
:100CC0002E4A934202D1BB6BBB6408E07B682C4A7E
:100CD000934202D1FB6BBB6401E03B6CBB647B685D
:100CE0001B6803F40043002B11D0BB6C5A003B6817
:100CF0001B68B2FBF3F3FB64BB6C5B003A681268E1
:100D0000B3FBF2F102FB01F29B1A7B640EE03B683D
:100D10001B68BA6CB2FBF3F3FB643B681A68BB6CEC
:100D2000B3FBF2F102FB01F29B1A7B643B681B6888
:100D30005A087B6C9A4202D8FB6C0133FB647B68D7
:100D40001B6803F40043002B0BD0FB6C5B0803F023
:100D500007037B64FA6C4FF6F07313407A6C13430D
:100D6000FB64FB6C9AB27B689A8100BF5037BD462A
:100D700080BD00BF003801400044004000480040F2
:100D8000004C004080B483B000AF78600B46FB702D
:100D9000FB78002B06D07B681B6843F001027B6860
:100DA0001A6005E07B681B6823F001027B681A600B
:0C0DB00000BF0C37BD4680BC704700BF80
:100DBC0000000000010203040102030406070809F5
:100DCC000000010002000400060008000A000C00EC
:0C0DDC001000200040008000000100001A
:0400000508000000EF
:00000001FF
